:020000040800F2
:1000000000000220B51B0008D1160008D316000816
:10001000D5160008D7160008D91600080000000001
:10002000000000000000000000000000F144000893
:10003000DB1600080000000091450008334200086C
:10004000051C0008051C0008051C0008051C00080C
:10005000051C0008051C0008051C0008051C0008FC
:10006000051C0008051C0008051C0008051C0008EC
:10007000DD160008051C0008051C0008051C00080A
:10008000051C0008051C0008051C0008051C0008CC
:10009000ED160008FD160008051C0008051C0008E8
:1000A000051C0008051C0008051C0008051C0008AC
:1000B000051C0008051C0008051C0008051C00089C
:1000C000051C0008051C0008051C0008051C00088C
:1000D000051C00080D170008051C00081D17000866
:1000E000051C0008051C0008051C0008051C00086C
:1000F000051C00082D170008051C0008051C000839
:10010000051C0008051C0008051C0008051C00084B
:10011000051C0008051C0008051C0008051C00083B
:10012000051C0008051C00083D1700084D170008B5
:10013000051C0008051C0008051C0008051C00081B
:100140005D1700086D170008051C0008051C000855
:100150007D170008051C00088D170008051C000805
:10016000051C0008051C0008051C0008051C0008EB
:10017000051C0008051C0008051C00080000000004
:08018000051C0008051C000825
:1001C00081F0004102E000BF83F0004330B54FEA08
:1001D00041044FEA430594EA050F08BF90EA020F75
:1001E0001FBF54EA000C55EA020C7FEA645C7FEA08
:1001F000655C00F0E2804FEA5454D4EB5555B8BF2B
:100200006D420CDD2C4480EA020281EA030382EA9B
:10021000000083EA010180EA020281EA0303362D2D
:1002200088BF30BD11F0004F4FEA01314FF4801C00
:100230004CEA113102D0404261EB410113F0004F12
:100240004FEA03334CEA133302D0524263EB4303C9
:1002500094EA050F00F0A780A4F10104D5F1200E67
:100260000DDB02FA0EFC22FA05F2801841F10001C2
:1002700003FA0EF2801843FA05F359410EE0A5F196
:1002800020050EF1200E012A03FA0EFC28BF4CF0C7
:10029000020C43FA05F3C01851EBE37101F000457D
:1002A00007D54FF0000EDCF1000C7EEB00006EEB8A
:1002B0000101B1F5801F1BD3B1F5001F0CD3490814
:1002C0005FEA30004FEA3C0C04F101044FEA44526B
:1002D00012F5800F80F09A80BCF1004F08BF5FEAF2
:1002E000500C50F1000041EB045141EA050130BDD2
:1002F0005FEA4C0C404141EB0101013C28BFB1F5E4
:10030000801FE9D291F0000F04BF01460020B1FA2E
:1003100081F308BF2033A3F10B03B3F120020CDA01
:100320000C3208DD02F1140CC2F10C0201FA0CF0DF
:1003300021FA02F10CE002F11402D8BFC2F1200C44
:1003400001FA02F120FA0CFCDCBF41EA0C019040FA
:10035000E41AA2BF01EB0451294330BD6FEA040443
:100360001F3C1CDA0C340EDC04F11404C4F120022E
:1003700020FA04F001FA02F340EA030021FA04F340
:1003800045EA030130BDC4F10C04C4F1200220FA97
:1003900002F001FA04F340EA0300294630BD21FAD5
:1003A00004F0294630BD94F0000F83F4801306BF9B
:1003B00081F480110134013D4EE77FEA645C18BF8F
:1003C0007FEA655C29D094EA050F08BF90EA020F26
:1003D00005D054EA000C04BF1946104630BD91EA1E
:1003E000030F1EBF0021002030BD5FEA545C05D121
:1003F0004000494128BF41F0004130BD14F5800460
:100400003CBF01F5801130BD01F0004545F0FE41D3
:1004100041F470014FF0000030BD7FEA645C1ABF08
:10042000194610467FEA655C1CBF0B46024650EA3F
:10043000013406BF52EA033591EA030F41F400216B
:1004400030BD00BF90F0000F04BF0021704730B5F1
:100450004FF4806404F132044FF000054FF00001C6
:1004600050E700BF90F0000F04BF0021704730B587
:100470004FF4806404F1320410F0004548BF40425C
:100480004FF000013EE700BF42004FEAE2014FEAB1
:1004900031014FEA02701FBF12F07F4393F07F4F8C
:1004A00081F06051704732F07F4208BF704793F08F
:1004B0007F4F04BF41F40021704730B54FF46074A2
:1004C00001F0004521F000411CE700BF50EA0102A5
:1004D00008BF704730B54FF000050AE050EA01024E
:1004E00008BF704730B511F0004502D5404261EBBE
:1004F00041014FF4806404F132045FEA915C3FF4FF
:10050000D8AE4FF003025FEADC0C18BF03325FEA9B
:10051000DC0C18BF033202EBDC02C2F1200300FA4C
:1005200003FC20FA02F001FA03FE40EA0E0021FA71
:1005300002F11444BDE600BF53B94AB9002908BF0F
:1005400000281CBF4FF0FF314FF0FF3000F00CB817
:10055000ADF1080C6DE904CE06F01AFBDDF804E0FD
:10056000DDE9022304B07047704700BF844641EACA
:10057000000313F003036DD1403A41D351F8043B1B
:1005800040F8043B51F8043B40F8043B51F8043B6D
:1005900040F8043B51F8043B40F8043B51F8043B5D
:1005A00040F8043B51F8043B40F8043B51F8043B4D
:1005B00040F8043B51F8043B40F8043B51F8043B3D
:1005C00040F8043B51F8043B40F8043B51F8043B2D
:1005D00040F8043B51F8043B40F8043B51F8043B1D
:1005E00040F8043B51F8043B40F8043B51F8043B0D
:1005F00040F8043B51F8043B40F8043B403ABDD27C
:10060000303211D351F8043B40F8043B51F8043B1D
:1006100040F8043B51F8043B40F8043B51F8043BDC
:1006200040F8043B103AEDD20C3205D351F8043BAC
:1006300040F8043B043AF9D2043208D0D2071CBF78
:1006400011F8013B00F8013B01D30B8803806046A1
:10065000704700BF082A13D38B078DD010F0030317
:100660008AD0C3F10403D21ADB071CBF11F8013B87
:1006700000F8013B80D331F8023B20F8023B7BE7D6
:10068000043AD9D3013A11F8013B00F8013BF9D201
:100690000B7803704B7843708B788370604670479B
:1006A000000000000000000000000000000000004A
:1006B000000000000000000000000000000000003A
:1006C00030B490F800F020F007016FF0000C10F04B
:1006D000070491F820F040F048804FF000046FF0DC
:1006E0000700D1E9002391F840F000F1080082FAF8
:1006F0004CF2A4FA8CF283FA4CF3A2FA8CF34BBBC3
:10070000D1E9022382FA4CF200F10800A4FA8CF23B
:1007100083FA4CF3A2FA8CF3E3B9D1E9042382FA09
:100720004CF200F10800A4FA8CF283FA4CF3A2FA1E
:100730008CF37BB9D1E9062301F1200182FA4CF256
:1007400000F10800A4FA8CF283FA4CF3A2FA8CF3BD
:10075000002BC6D0002A04BF04301A4612BAB2FADF
:1007600082F200EBD20030BC7047D1E9002304F0E4
:100770000305C4F100004FEAC50514F0040F91F819
:1007800040F00CFA05F562EA05021CBF63EA0503B6
:1007900062464FF00004AAE70000000000000000DD
:1007A00001F0FF01102A2BDB10F0070F08D010F822
:1007B000013B013A8B422DD010F0070F42B3F6D126
:1007C000F0B441EA012141EA014122F007047FF03F
:1007D00000070023F0E80256083C85EA010586EA96
:1007E000010685FA47F5A3FA87F586FA47F6A5FAD2
:1007F00087F68EB9EED1F0BC01F0FF0102F00702DE
:1008000032B110F8013B013A83EA010313B1F8D188
:100810000020704701387047002D06BF3546033869
:10082000073815F0010F07D1013015F4807F02BFA2
:10083000013015F4C03F0130F0BC0138704700BFF3
:1008400070B54FF0FF0C4CF4E06C1CEA11541DBF66
:100850001CEA135594EA0C0F95EA0C0F00F0DEF831
:100860002C4481EA030621EA4C5123EA4C5350EA16
:10087000013518BF52EA033541F4801143F4801367
:1008800038D0A0FB02CE4FF00005E1FB02E506F0F8
:100890000042E0FB03E54FF00006E1FB03569CF04D
:1008A000000F18BF4EF0010EA4F1FF04B6F5007F53
:1008B00064F5407404D25FEA4E0E6D4146EB0606C5
:1008C00042EAC62141EA55514FEAC52040EA5E504E
:1008D0004FEACE2EB4F1FD0C88BFBCF5E06F1ED8F8
:1008E000BEF1004F08BF5FEA500E50F1000041EB2F
:1008F000045170BD06F0004646EA010140EA0200DC
:1009000081EA0301B4EB5C04C2BFD4EB0C0541EAFD
:10091000045170BD41F480114FF0000E013C00F312
:10092000AB8014F1360FDEBF002001F0004170BD36
:10093000C4F10004203C35DA0C341BDC04F114044F
:10094000C4F1200500FA05F320FA04F001FA05F2DB
:1009500040EA020001F0004221F0004110EBD370A8
:1009600021FA04F642EB06015EEA430E08BF20EAD4
:10097000D37070BDC4F10C04C4F1200500FA04F377
:1009800020FA05F001FA04F240EA020001F0004109
:1009900010EBD37041F100015EEA430E08BF20EA7C
:1009A000D37070BDC4F1200500FA05F24EEA020EC4
:1009B00020FA04F301FA05F243EA020321FA04F0F3
:1009C00001F0004121FA04F220EA020000EBD370AA
:1009D0005EEA430E08BF20EAD37070BD94F0000FAA
:1009E0000FD101F00046400041EB010111F4801FDE
:1009F00008BF013CF7D041EA060195F0000F18BF8F
:100A0000704703F00046520043EB030313F4801FCA
:100A100008BF013DF7D043EA0603704794EA0C0F84
:100A20000CEA135518BF95EA0C0F0CD050EA41069A
:100A300018BF52EA4306D1D181EA030101F0004117
:100A40004FF0000070BD50EA410606BF104619463F
:100A500052EA430619D094EA0C0F02D150EA01364B
:100A600013D195EA0C0F05D152EA03361CBF10468C
:100A700019460AD181EA030101F0004141F0FE412B
:100A800041F470014FF0000070BD41F0FE4141F4AF
:100A9000780170BD70B54FF0FF0C4CF4E06C1CEAAF
:100AA00011541DBF1CEA135594EA0C0F95EA0C0F64
:100AB00000F0A7F8A4EB050481EA030E52EA03351F
:100AC0004FEA013100F088804FEA03334FF0805540
:100AD00045EA131343EA12634FEA022245EA11156D
:100AE00045EA10654FEA00260EF000419D4208BF1E
:100AF000964244F1FD0404F5407402D25B084FEACB
:100B00003202B61A65EB03055B084FEA32024FF476
:100B100080104FF4002CB6EB020E75EB030E22BFD3
:100B2000B61A754640EA0C005B084FEA3202B6EB93
:100B3000020E75EB030E22BFB61A754640EA5C0042
:100B40005B084FEA3202B6EB020E75EB030E22BFD2
:100B5000B61A754640EA9C005B084FEA3202B6EBD3
:100B6000020E75EB030E22BFB61A754640EADC0092
:100B700055EA060E18D04FEA051545EA16754FEAF4
:100B800006164FEAC30343EA52734FEAC2025FEA12
:100B90001C1CC0D111F4801F0BD141EA00014FF0A1
:100BA00000004FF0004CB6E711F4801F04BF014372
:100BB0000020B4F1FD0C88BFBCF5E06F3FF6AFAE8E
:100BC000B5EB030C04BFB6EB020C5FEA500C50F11E
:100BD000000041EB045170BD0EF0004E4EEA1131A1
:100BE00014EB5C04C2BFD4EB0C0541EA045170BDA8
:100BF00041F480114FF0000E013C90E645EA060EEC
:100C00008DE60CEA135594EA0C0F08BF95EA0C0F19
:100C10003FF43BAF94EA0C0F0AD150EA01347FF461
:100C200034AF95EA0C0F7FF425AF104619462CE738
:100C300095EA0C0F06D152EA03353FF4FDAE10469B
:100C4000194622E750EA410618BF52EA43067FF4EC
:100C5000C5AE50EA41047FF40DAF52EA43057FF47C
:100C6000EBAE12E74FF0FF3C06E000BF4FF0010C87
:100C700002E000BF4FF0010C4DF804CD4FEA410CEB
:100C80007FEA6C5C4FEA430C18BF7FEA6C5C1BD0B8
:100C900001B050EA410C0CBF52EA430C91EA030F39
:100CA00002BF90EA020F0020704710F1000F91EA96
:100CB000030F58BF994208BF90422CBFD8176FEA64
:100CC000E37040F0010070474FEA410C7FEA6C5C32
:100CD00002D150EA013C07D14FEA430C7FEA6C5C39
:100CE000D6D152EA033CD3D05DF8040B704700BF65
:100CF0008446104662468C461946634600E000BFB3
:100D000001B5FFF7B7FF002848BF10F1000F01BD84
:100D10004DF808EDFFF7F4FF0CBF012000205DF84F
:100D200008FB00BF4DF808EDFFF7EAFF34BF0120D4
:100D300000205DF808FB00BF4DF808EDFFF7E0FF6D
:100D400094BF012000205DF808FB00BF4DF808EDBE
:100D5000FFF7CEFF94BF012000205DF808FB00BF25
:100D60004DF808EDFFF7C4FF34BF012000205DF807
:100D700008FB00BF4FEA410C7FEA6C5C02D150EAED
:100D8000013C0AD14FEA430C7FEA6C5C02D152EA83
:100D9000033C02D14FF0000070474FF00100704754
:100DA0004FEA410212F5001215D211D56FF4787393
:100DB000B3EB625212D94FEAC12343F0004343EA36
:100DC000505311F0004F23FA02F018BF4042704711
:100DD0004FF00000704750EA013005D111F000409B
:100DE00008BF6FF0004070474FF00000704700BF31
:100DF0000348044B834202D0034B03B118477047AA
:100E0000EC060020EC060020000000000548064B20
:100E10001B1AD90F01EBA301491002D0034B03B1F8
:100E200018477047EC060020EC0600200000000088
:100E300010B5064C237843B9FFF7DAFF044B13B122
:100E40000448AFF300800123237010BDF00600209A
:100E50000000000024DB000808B5054B1BB1054964
:100E60000548AFF30080BDE80840FFF7CFBF00BFE3
:100E700000000000F406002024DB000808B50E483E
:100E80000E4B03600323436000238360C3604FF471
:100E9000102202614FF4001242610376437683769A
:100EA0000122C2760377427700F0DAFE00B908BD6E
:100EB00000F066FAFBE700BF38070020006400403E
:100EC00008B50E480E4B0360032343600023836084
:100ED000C3604FF4102202614FF4001242610376A6
:100EE000437683760122C2760377427700F0B8FE1C
:100EF00000B908BD00F044FAFBE700BF100700206E
:100F00000068004010B58AB000230593069307934C
:100F1000089309930368454A934204D0444A934294
:100F20003CD00AB010BD434A136801331360012B53
:100F300027D000240194404B1A6B42F008021A6338
:100F40001B6B03F008030193019B0323059302220B
:100F5000069208930923099305A9384801F042FD38
:100F600022460521142001F0C7FA142001F0D4FA1A
:100F700022460521152001F0BFFA152001F0CCFA18
:100F8000CFE7002300932C4B1A6C42F000721A64D6
:100F90001B6C03F000730093009BCAE700230293CD
:100FA000254B1A6C42F080621A641B6C03F080635C
:100FB0000293029B1F4A136801331360012B28D050
:100FC000002404941C4B1A6B42F002021A631B6B40
:100FD00003F002030493049B60230593022306930A
:100FE000032308930923099305A9154801F0FAFC86
:100FF00022460521402001F07FFA402001F08CFAC2
:1010000022460521412001F077FA412001F084FABF
:1010100087E700230393084B1A6C42F000721A64AE
:101020001B6C03F000730393039BC9E7006400404B
:10103000006800400C07002000380240000C02400D
:101040000004024010B582B0002400941E4B1A6BBD
:1010500042F480021A631A6B02F480020092009A32
:1010600001941A6B42F400121A631B6B03F4001311
:101070000193019B224605210C2001F03DFA0C2032
:1010800001F04AFA224605213A2001F035FA3A20C9
:1010900001F042FA224605213B2001F02DFA3B20C7
:1010A00001F03AFA22460521442001F025FA4420B5
:1010B00001F032FA22460521462001F01DFA4620B1
:1010C00001F02AFA02B010BD0038024008B5012034
:1010D00003F049F9FBE700002DE9804889B0424C54
:1010E00001224FF48061204601F072FD01224FF48D
:1010F0000061204601F06CFD01224FF48051204632
:1011000001F066FD2AE077EEC77A17EE900AFFF746
:10111000BBF982468B46354C6178207805F034FD6A
:101120002378334C334AB2F9002006920593049099
:10113000CDE902ABCDE9006743462A462E49204659
:1011400005F074FF2046FFF7BBFA642382B2214604
:101150002A4802F04CFD012003F005F9284B1878CD
:1011600005F044F8274B93ED001A274BD3ED000A06
:10117000264B93ED000A05F0CFF81E4BB3F9004063
:101180001A4B5978187805F0FFFC0021009103B242
:1011900022464FF4C06005F09FF91D4BB3F918507B
:1011A0001C4BD3F810801C4B1868FFF76DF90646EE
:1011B0000F461A4BB3F9003007EE903AF8EEE77A93
:1011C00077EEA77A9FED167A67EE877A9FED157A0C
:1011D00067EE877A9FED147A77EE877AF4EEC77A16
:1011E000F1EE10FA8FDC90E7001C0240E05B00207B
:1011F00068070020E25B002040DB0008E00A0020D6
:10120000DE5B0020E85B0020EC5B0020F05B002050
:10121000B85A0020D85A0020E45B0020B45A0020BD
:10122000DB0F494000000039DB0FC94008B5074A11
:101230000021074803F038F8064B1860064A0021E1
:10124000064803F031F8064B186008BD50DD000871
:10125000CD100008640700202CDD0008D91000081C
:10126000600700202DE9F0418CB000240794089419
:1012700009940A940B940194374B1A6B42F00202C2
:101280001A631A6B02F002020192019A02941A6B1D
:1012900042F001021A631A6B02F001020292029AF2
:1012A00003941A6B42F008021A631A6B02F00802E8
:1012B0000392039A04941A6B42F004021A631A6BA5
:1012C00002F004020492049A05941A6B42F0800220
:1012D0001A631A6B02F080020592059A06941A6B43
:1012E00042F020021A631B6B03F020030693069B57
:1012F0001A4F01224FF4E051384601F069FCDFF843
:10130000648001221021404601F062FC144E01224B
:101310001146304601F05CFC4FF4E0530793012581
:10132000089509940A9407A9384601F05BFB10233D
:1013300007930895099402270A9707A9404601F0E8
:1013400051FB0795089509940A9707A9304601F0C3
:1013500049FB0CB0BDE8F08100380240001C02409F
:10136000000402400000024008B50268034B9A42A4
:1013700000D008BD00F062FCFBE700BF0020004089
:1013800072B6FEE700B595B03022002108A805F03E
:10139000B7FE0023039304930593069307930193E9
:1013A000204A116C41F080511164126C02F080529D
:1013B0000192019A02931C4B1A6842F480421A600F
:1013C0001B6803F480430293029B012308934FF4AC
:1013D0008033099302230E934FF480020F9206226A
:1013E0001092A822119212930423139308A801F0DB
:1013F000F5FB98B90F23039302230493002305936D
:101400004FF4A05306934FF480530793052103A88C
:1014100001F034FE20B915B05DF804FBFFF7B0FF12
:10142000FFF7AEFF003802400070004008B500F042
:10143000EBFBFFF7A7FFFFF715FFFFF703FE00F039
:1014400093FAFFF71BFDFFF73BFD00F0A7FA00F052
:1014500015F800F04FFA04F089FD122205490648FC
:1014600002F0D4FE02F0F2FEFFF7E0FE02F000FF11
:10147000FEE700BF085C0020980A002008B50F486E
:101480000F4B03604FF48273436000238360C3609B
:1014900002220261012242614FF40072826138220D
:1014A000C2610362436283620A23C36201F0DAFE0F
:1014B00000B908BDFFF764FFFBE700BF8C08002000
:1014C000003001402DE9F04188B0002303930493DC
:1014D00005930693079302683C4B9A4202D008B0EA
:1014E000BDE8F08104460025009503F584335A6C6D
:1014F00042F480525A645A6C02F480520092009A6C
:1015000001951A6B42F002021A631A6B02F0020292
:101510000192019A02951A6B42F001021A631B6B49
:1015200003F001030293029B182303934FF0020878
:10153000CDF81080032706970526079603A92448AF
:1015400001F050FA80230393CDF81080059506979B
:10155000079603A91F4801F045FA1F481F4B036077
:101560004FF0C06343608560C5604FF480630361E2
:1015700045618561C5614FF440330362456201F006
:101580004BF8E8B9144BE3649C631548154B0360B2
:101590004FF0C0634360402383600023C3604FF477
:1015A0008062026143618361C3614FF40032026271
:1015B000436201F031F830B9094BA3649C638EE7B4
:1015C000FFF7DEFEDEE7FFF7DBFEF5E70030014068
:1015D00000040240000002402C0800204064024049
:1015E000CC0700205864024000B583B0002200926E
:1015F0000D4B596C41F480415964596C01F48041A0
:10160000009100990192196C41F0805119641B6C92
:1016100003F080530193019B0F216FF0010000F054
:101620006BFF03B05DF804FB0038024030B589B0B1
:10163000044600230193214B1A6C42F480721A6411
:101640001B6C03F480730193019B02A903A801F0B2
:10165000EBFD069BCBB901F0C7FD0346184AA2FB80
:1016600003239B0C013B1748174A026040F2E73204
:10167000C2604360002303618360836102F04EF81F
:10168000054630B1284609B030BD01F0ADFD43003C
:10169000E4E70C4801F0DEFE05460028F2D12D20DB
:1016A00000F03AFF0F2C01D90125EBE7002221467B
:1016B0002D2000F021FF054B1C60E3E700380240BD
:1016C00083DE1B43E40800200020004008000020C7
:1016D000FEE7FEE7FEE7FEE7FEE7704708B50248D3
:1016E00001F092F808BD00BF7809002008B5024853
:1016F00000F086FD08BD00BF3807002008B502488D
:1017000000F07EFD08BD00BF3807002008B5024884
:1017100002F08CFB08BD00BFE00A002008B50248BB
:1017200002F084FB08BD00BF980A002008B50248FB
:1017300001F0D9FE08BD00BFE408002008B502484A
:1017400001F062F808BD00BF2C08002008B502486F
:1017500001F05AF808BD00BFCC07002008B50248C8
:1017600000F04EFD08BD00BF1007002008B502487C
:1017700000F046FD08BD00BF1007002008B5024874
:1017800001F042F808BD00BF380A002008B5024841
:1017900001F03AF808BD00BFD809002001207047C9
:1017A00008B505F089FD162303604FF0FF3008BD32
:1017B00008B54FF0FF31FFF7F3FFFEE770B50C46B9
:1017C0001646002506E0AFF30080214601F8010B24
:1017D00001350C46B542F6DB304670BD70B50C469F
:1017E0001646002504E014F8010BAFF30080013524
:1017F000B542F8DB304670BD4FF0FF3070474FF414
:1018000000534B6000207047012070470020704754
:1018100010B503460C4A0D490D48006840B10C480C
:1018200000680344521A934206D8094A136010BD57
:101830000748084C0460F2E705F03EFD0C23036006
:101840004FF0FF30F3E700BF00000220000400006B
:101850002C090020305F0020034AD2F8883043F47E
:101860007003C2F88830704700ED00E00268094B51
:101870009A4200D0704782B000230193064B5A6C05
:1018800042F400325A645B6C03F400330193019B11
:1018900002B07047004401400038024000B587B0F4
:1018A00000230193029303930493059302680E4B64
:1018B0009A4202D007B05DF804FB002300930B4B63
:1018C0001A6B42F020021A631B6B03F02003009393
:1018D000009B40230193022302930323059301A954
:1018E000034801F07FF8E5E700440140003802407A
:1018F0000014024000B589B00023019302930393C2
:1019000004930593069307931548164A02604360B3
:1019100083604FF6FF72C2600361836101F0FEFED7
:10192000A0B90F4801F026FF98B960230193002267
:1019300002920392059201A9094801F07FFF58B96C
:101940000748FFF7ABFF09B05DF804FBFFF718FD90
:10195000E7E7FFF715FDE8E7FFF712FDF0E700BF47
:10196000300900200044014008B50A480A4B0360D2
:101970004FF4E133436000238360C36003610C22B2
:1019800042618361C36102F002F900B908BDFFF74B
:10199000F7FCFBE7E00A00200010014008B50C4806
:1019A0000C4B03600C4B43604FF480538360002367
:1019B000C3604FF4806202610C2242618361C361A3
:1019C00002F0E5F800B908BDFFF7DAFCFBE700BF5D
:1019D000980A002000480040A08601002DE9F0414F
:1019E0008AB004460023059306930793089309934E
:1019F0000368644A934205D0634A93427DD00AB09B
:101A0000BDE8F08100250095604B5A6C42F0100251
:101A10005A645A6C02F010020092009A01951A6BF7
:101A200042F002021A631A6B02F002020192019A5A
:101A300002951A6B42F001021A631B6B03F001035B
:101A40000293029B802305934FF00208CDF8188083
:101A5000032708970726099605A94D4800F0C2FFFD
:101A60004FF400730593CDF81880079508970996F1
:101A700005A9484800F0B6FF4748484B03604FF0BF
:101A8000006343608560C5604FF480630361456116
:101A90008561C5614FF440330362456200F0BCFDCF
:101AA00028BB3D4BE3639C633D483E4B03604FF0D6
:101AB00000634360402383600023C3604FF480626F
:101AC000026143618361C3614FF440320262436249
:101AD00000F0A2FD70B9324BA3639C630022052184
:101AE000252000F009FD252000F016FD87E7FFF70F
:101AF00047FCD6E7FFF744FCEDE700250395234BB1
:101B00001A6C42F480221A641A6C02F48022039246
:101B1000039A04951A6B42F004021A631B6B03F0DC
:101B200004030493049B4FF440630593022306933C
:101B3000032308930723099305A91B4800F052FFCC
:101B40001A481B4B03604FF0006343608560C5601B
:101B50004FF48063036145618561C561056245623B
:101B600000F05AFD58B9114BE3639C630022052134
:101B7000272000F0C1FC272000F0CEFC3FE7FFF754
:101B8000FFFBF0E700100140004800400038024031
:101B90000004024000000240380A0020886402402D
:101BA000D8090020B86402400008024078090020EB
:101BB00028600240DFF834D0FFF74EFE0C480D4994
:101BC0000D4A002302E0D458C4500433C4188C4298
:101BD000F9D30A4A0A4C002301E013600432A242FE
:101BE000FBD305F06FFBFFF721FC704700000220DC
:101BF00000000020EC060020B8E30008F0060020FA
:101C0000305F0020FEE7000008B50B4B1A6842F475
:101C100000721A601A6842F480621A601A6842F40C
:101C200080721A60032000F055FC0F20FFF7FEFCC5
:101C3000FFF7DAFC002008BD003C0240034A1168AF
:101C4000034B1B780B441360704700BF280B002028
:101C500004000020014B1868704700BF280B0020CB
:101C6000002800F0A18038B5044690F82030D3B1A8
:101C70002268136843F001031360FFF7EBFF05468A
:101C800023685A6812F0010F10D1FFF7E3FF401BE1
:101C90000A28F5D9636A43F400336362052384F8A4
:101CA0002030012038BDFFF72DF9E1E71A6822F056
:101CB00002021A60FFF7CEFF054623685A6812F049
:101CC000020F0DD0FFF7C6FF401B0A28F5D9636A43
:101CD00043F400336362052384F820300120E1E7F8
:101CE000227E012A3DD01A6822F080021A60637EAB
:101CF000012B3BD02268136823F040031360A37EBE
:101D0000012B39D02268136823F020031360E37E8F
:101D1000012B37D02268136843F010031360237F30
:101D2000012B35D02268136823F008031360637F0A
:101D3000012B33D02268136823F004031360A368D7
:101D4000E268134322691343626913436268013AEC
:101D500021681343CB6100206062012384F82030A6
:101D6000A0E71A6842F080021A60C0E72268136890
:101D700043F040031360C2E72268136843F0200376
:101D80001360C4E72268136823F010031360C6E7EA
:101D90002268136843F008031360C8E722681368D9
:101DA00043F004031360CAE70120704790F8203025
:101DB000013BDBB2012B05D9436A43F48023436224
:101DC0000120704730B5464BD3F8002242F00102A3
:101DD000C3F80022D3F8002222F47C52C3F8002278
:101DE000D3F80022486A42EA0022C3F800224A6976
:101DF00002F01F02012000FA02F2D3F81C026FEA7F
:101E0000020C20EA0200C3F81C02CB69C3B9344BB0
:101E1000D3F80C020CEA0000C3F80C028C88486965
:101E2000CD6844EA0544483043F830408C6808885F
:101E300040EA04404C6904F1480E03EBCE035860BD
:101E4000CB69012B1ED08B69002B33D12448D0F8ED
:101E500004320CEA0303C0F804320B698BBB204840
:101E6000D0F814320CEA0303C0F814320B6A012BC9
:101E70002ED01B4AD2F8003223F00103C2F8003200
:101E8000002030BD164BD3F80C021043C3F80C02EF
:101E90008C8848690D6844EA0544483043F830406E
:101EA00088894C698D6840EA0540483403EBC403D7
:101EB0005860C8E70A48D0F804321343C0F8043227
:101EC000CBE70748D0F814321343C0F81432CDE7FB
:101ED0000349D1F81C321343C1F81C32C9E700BFD3
:101EE0000064004070B5044690F82050EDB2012D1A
:101EF00006D0436A43F4002343620125284670BD9F
:101F0000022380F820300268136823F00103136075
:101F1000FFF7A0FE064623685B6813F0010F0CD0A4
:101F2000FFF798FE831B0A2BF5D9636A43F400334D
:101F30006362052384F82030E0E700256562DDE771
:101F400030B590F820C00468A4680CF1FF3C5FFA3B
:101F50008CFCBCF1010F62D814F0E05F59D0C4F3DF
:101F6000016C012404FA0CF41C608B68002B3DD139
:101F70000D68CB68046843EA45550CF118031B0152
:101F8000E55003680C690CF1180E03EB0E135C604E
:101F90000B7D012B35D0D17993791B0443EA016382
:101FA000517943EA012314790168234301EB0C11B1
:101FB000C1F88C31D17893781B0443EA01635178DE
:101FC00043EA0123117802680B4302EB0C12C2F8BA
:101FD000883102680CF1180C4FEA0C1C52F80C30D6
:101FE00043F0010342F80C3000201DE04C6843EA46
:101FF000C403CC6823430CF11804240105682B5159
:10200000BFE7036803EB0E13596841F48071596010
:10201000C1E7436A43F400134362012004E0436ACA
:1020200043F480234362012030BD90F82030013B0F
:10203000DBB2012B01D9002070470368986810F0CB
:10204000806000D001209A6812F0006F00D001304B
:102050009B6813F0805FEFD00130704790F820C08C
:102060000CF1FF3C5FFA8CFCBCF1010F00F2A58083
:1020700030B451B90468E46814F0030F10D1436A16
:1020800043F40013436201207EE00468246914F0E5
:10209000030F05D1436A43F400134362012073E048
:1020A000056801F11B0424012C5904F00404946018
:1020B000002C6BD1056801F11B0424012C59640D1F
:1020C0001460046801F11B0C4FEA0C1C54F80C401E
:1020D00004F00204D4600468A444DCF8045015F051
:1020E000080F5BD008241461046801F11B0C04EB99
:1020F0000C146468C4F307249461046804EB0C14A2
:102100006468240C5461026802EB0112D2F8B82111
:102110001A70026802EB0112D2F8B821C2F307224A
:102120005A70026802EB0112D2F8B821C2F30742DA
:102130009A70026802EB0112D2F8B821120EDA701E
:10214000026802EB0112D2F8BC211A71026802EB9C
:102150000112D2F8BC21C2F307225A71026802EBC5
:102160000112D2F8BC21C2F307429A71026802EB55
:102170000112D2F8BC21120EDA71C1B90268D3681B
:1021800043F02003D360002030BC7047056801F1A4
:102190001B0424012C59E408546092E701F11B054B
:1021A00004EB0514646804F00F0414619CE70268F2
:1021B000136943F020031361E5E7436A43F4802386
:1021C00043620120704790F82030013BDBB2012BC5
:1021D00005D9436A43F480234362012070470268B3
:1021E00053690B4353610020704770477047704735
:1021F0007047704770477047704770477047704727
:102200002DE9F84F054603685C69D3F804809F68A0
:10221000D3F80CA0D3F81090D3F818B014F001063E
:102220003BD017F0010616D001229A6017F0020F7A
:1022300008D117F0040F0CD117F0080606D04FF4A0
:10224000805608E0FFF7D1FF002604E0FFF7D0FF3B
:1022500001E04FF4006617F4807F0DD02B684FF437
:1022600080729A6017F4007F40F0968017F4806FB8
:1022700000F0968046F4005617F4803F0DD02B688E
:102280004FF480329A6017F4003F40F0938017F4C7
:10229000802F00F0938046F4004614F0080F07D01A
:1022A0001AF0100F04D046F400762B681022DA6082
:1022B00014F0040F03D01AF0080F40F0898014F0D6
:1022C000020F05D02B68DB6813F0030F40F0878006
:1022D00014F0400F07D019F0100F04D046F48066B8
:1022E0002B6810221A6114F0200F02D019F0080F89
:1022F00079D114F0100F04D02B681B6913F0030F71
:1023000078D114F4003F02D018F0100F76D114F4F5
:10231000803F02D018F0080F77D114F4004F37D067
:1023200018F0040F31D014F4807F04D01BF0010F9B
:1023300001D046F0010614F4007F04D01BF0020F18
:1023400001D046F0020614F4806F04D01BF0040F95
:1023500001D046F0040614F4006F16D01BF0700B89
:1023600013D0BBF1400F66D056D8BBF1200F5CD024
:10237000BBF1300F5CD0BBF1100F01D146F0080665
:102380002A68936923F0700393612B6804225A60D2
:10239000002E56D1BDE8F88F2846FFF727FF6BE7E0
:1023A00017F4006F02D046F4804665E72846FFF731
:1023B00020FF61E72846FFF71AFF6EE717F4002FAA
:1023C00002D046F4803668E72846FFF713FF64E73B
:1023D0002B680822DA602846FFF70DFF6FE72846D2
:1023E00004F0FCF874E72B6808221A612846FFF70E
:1023F00003FF7EE7284604F067F982E72B68102286
:102400005A602846FFF7F9FE81E72B6808225A60D8
:102410002846FFF7F3FE80E7BBF1500F0ED0BBF16B
:10242000600FADD146F48076AAE746F01006A7E724
:1024300046F02006A4E746F04006A1E746F08006F5
:102440009EE76B6A33436B622846FFF7D8FEA1E72D
:10245000002807DB00F01F02400901239340024AD5
:1024600042F82030704700BF00E100E0002808DBA0
:102470000901C9B200F1604000F5614080F8001325
:10248000704700F00F000901C9B2014B19547047A1
:1024900014ED00E000B500F00700C0F1070CBCF13E
:1024A000040F28BF4FF0040C031D062B0FD9C31EC9
:1024B0004FF0FF3E0EFA0CF021EA000199400EFAAF
:1024C00003FE22EA0E0241EA02005DF804FB00234B
:1024D000EEE70000074AD36823F4E0631B041B0CFB
:1024E000000200F4E060034343F0BF6343F40033B1
:1024F000D360704700ED00E010B50446054BD86886
:10250000C0F30220FFF7C6FF01462046FFF7AEFFEB
:1025100010BD00BF00ED00E008B5FFF799FF08BD52
:1025200030B405682C6824F480242C60046863604F
:102530008368402B05D0036899600368DA6030BC7B
:10254000704703689A600368D960F8E710B40368BD
:10255000D9B210390A4AA2FB01421209094CA25C05
:10256000C2655F2907D96FF3090304338365806D62
:102570005DF8044B70476FF309038365F7E700BF0D
:10258000ABAAAAAA8CDD0008836A826992B9012BE2
:102590000AD0022B02D00BB100207047C36A13F09F
:1025A000807F28D100207047C36AB3F1C07F24D058
:1025B00000207047B2F5005F09D0022B25D9032B0C
:1025C00025D1C36A13F0807F23D100207047032BED
:1025D00003D8DFE803F01404140A00207047C36A2C
:1025E00013F0807F0DD100207047C36AB3F1C07F24
:1025F00009D000207047012070470120704701205A
:10260000704701207047012070470120704700206B
:10261000704701207047000070B50446FFF71AFBB1
:10262000002C5BD00546022384F83530002384F863
:1026300034302268136823F00103136023681A689A
:1026400012F0010F0AD0FFF705FB431B052BF5D94C
:1026500020236365032084F8350070BD1A68204983
:1026600011406268A0680243E068024320690243A7
:1026700060690243A0690243E0690243206A0243A1
:102680000A43616A04291ED01A602668756925F01C
:102690000705636A1D43042B07D1A36A1D43E36A40
:1026A0001BB12046FFF770FF90B975612046FFF718
:1026B0004DFFE26D3F23934083600020606501235E
:1026C00084F83530C9E7E16A206B01430A43DBE750
:1026D00040236365012084F83500BEE70120BCE794
:1026E0003F8010F038B50446856D90F8340001281D
:1026F0002BD0012084F8340094F83500C0B20128B2
:1027000004D0002384F83430022038BD022084F83D
:102710003500002060652046FFF702FFE26D3F2391
:102720009340AB602268136843F016031360236C78
:1027300023B12268136843F008031360226813680A
:1027400043F0010313600020DFE70220DDE770B5EE
:102750000446866DFFF77EFA94F83530DBB2022B23
:1027600006D080236365002384F83430012070BDD7
:1027700005462268136823F0160313602268536924
:1027800023F080035361236CE3B12268136823F0C4
:10279000080313602268136823F0010313602368A1
:1027A0001B6813F0010F11D0FFF754FA431B052BE0
:1027B000F5D920236365032084F83500002384F8CD
:1027C0003430D4E7A36C002BDFD1E3E7E26D3F2385
:1027D0009340B360012384F83530002084F834003E
:1027E000C5E790F83530DBB2022B03D08023436578
:1027F00001207047052380F835300268136823F004
:102800000103136000207047F0B583B00446002335
:102810000193724B1D68724BA3FB0535AD0A876DA2
:102820003E68C26D08239340334210D003681A6893
:1028300012F0040F0BD01A6822F004021A60C26D65
:1028400008239340BB60436D43F001034365E26D91
:1028500001239340334209D02268526912F0800F5D
:1028600004D0BB60636D43F002036365E26D042333
:102870009340334209D02268126812F0020F04D04C
:10288000BB60636D43F004036365E26D1023934006
:10289000334224D02268126812F0080F1FD0BB60A8
:1028A00023681A6812F4802F0DD01B6813F4002FD0
:1028B00004D1236C9BB12046984710E0A36C73B100
:1028C000204698470BE01A6812F4807F03D11A68FB
:1028D00022F008021A60236C0BB120469847E26D83
:1028E00020239340334255D02268126812F0100F13
:1028F00050D0BB6094F83530DBB2052B0ED0236886
:102900001A6812F4802F33D01B6813F4002F2AD1D9
:10291000636C002B3ED0204698473BE0226813684A
:1029200023F0160313602268536923F08003536178
:10293000236CA3B12268136823F008031360E26DCF
:102940003F239340BB60012384F83530002384F893
:102950003430236D002B3FD0204698473CE0A36CD9
:10296000002BE7D1EBE7E36BA3B12046984711E0DA
:102970001A6812F4807F09D11A6822F010021A60D6
:10298000012384F83530002384F83430E36B0BB135
:1029900020469847636DFBB1636D13F0010F17D0AC
:1029A000052384F835302268136823F0010313608F
:1029B000019B01330193AB4204D823681B6813F0D9
:1029C000010FF5D1012384F83530002384F8343029
:1029D000E36C0BB12046984703B0F0BD0000002027
:1029E000B5814E1B00230F2B00F2E98070B582B039
:1029F00065E085684FEA430E032404FA0EF425EAE5
:102A00000405CC6804FA0EF42C438460446824EA7C
:102A100002044A68C2F300129A40224342605CE01A
:102A2000DC08083450F8242003F00705AD004FF00F
:102A30000F0E0EFA05FE22EA0E0E0A69AA4042EABD
:102A40000E0240F824205CE0072200E0002202FA97
:102A50000EF22A4302345A4D45F82420594A94680C
:102A60006FEA0C0224EA0C054E6816F4801F01D0B0
:102A70004CEA0405534CA560E46802EA04054E687C
:102A800016F4001F01D04CEA04054E4CE560646862
:102A900002EA04054E6816F4003F01D04CEA040532
:102AA000484C6560246822404D6815F4803F01D091
:102AB0004CEA0402434C226001330F2B7DD80122E3
:102AC0009A400C6804EA020C32EA0404F4D14C681F
:102AD00004F00304013C012C8BD94A6802F0030284
:102AE000032A09D0C4685D000322AA4024EA020434
:102AF0008A68AA402243C2604A6802F00302022A9E
:102B00008ED004684FEA430E032202FA0EF224EA42
:102B100002044A6802F0030202FA0EF22243026043
:102B20004A6812F4403FC7D000220192264A546CF2
:102B300044F480445464526C02F480420192019A3D
:102B40009C08A51C1E4A52F8255003F0030E4FEABC
:102B50008E0E0F2202FA0EF225EA02051B4A90425F
:102B60003FF474AF02F5806290421AD002F58062A1
:102B7000904218D002F58062904216D002F5806231
:102B8000904214D002F58062904212D002F5806229
:102B9000904210D002F5806290423FF455AF082277
:102BA00055E7012253E7022251E703224FE70422AF
:102BB0004DE705224BE7062249E702B070BD70479A
:102BC00000380140003C0140003802400000024053
:102BD0000AB181617047090481617047002800F0E3
:102BE000E08170B582B00446036813F0010F3BD05A
:102BF0009F4B9B6803F00C03042B2CD09C4B9B68D1
:102C000003F00C03082B21D06368B3F5803F4FD04D
:102C1000B3F5A02F52D0964B1A6822F480321A6076
:102C20001A6822F480221A606368002B50D0FFF7E4
:102C300011F805468E4B1B6813F4003F14D1FFF7C3
:102C400009F8401B6428F5D90320B1E1884B5B6883
:102C500013F4800FD8D0864B1B6813F4003F03D0C9
:102C60006368002B00F09F81236813F0020F54D09B
:102C70007F4B9B6813F00C0F3ED07D4B9B6803F09D
:102C80000C03082B33D0E368002B68D0794B01226A
:102C90001A60FEF7DFFF0546754B1B6813F0020F45
:102CA00054D1FEF7D7FF401B0228F5D903207FE15E
:102CB0006F4A136843F480331360B5E76C4B1A68AE
:102CC00042F480221A601A6842F480321A60ABE73C
:102CD000FEF7C0FF0546664B1B6813F4003FC3D0E8
:102CE000FEF7B8FF401B6428F5D9032060E1604B74
:102CF0005B6813F4800FC6D15D4B1B6813F0020FA5
:102D000003D0E368012B40F05081594A136823F047
:102D1000F803216943EAC1031360236813F0080F25
:102D200042D063696BB3534B0122C3F8802EFEF788
:102D300091FF05464E4B5B6F13F0020F34D1FEF747
:102D400089FF401B0228F5D9032031E1484A136866
:102D500023F0F803216943EAC1031360DDE7454B23
:102D600000221A60FEF776FF0546414B1B6813F000
:102D7000020FD2D0FEF76EFF401B0228F5D90320C8
:102D800016E13C4B0022C3F8802EFEF763FF054698
:102D9000374B5B6F13F0020F06D0FEF75BFF401B53
:102DA0000228F5D9032003E1236813F0040F77D03C
:102DB0002F4B1B6C13F0805F33D1002301932C4BFE
:102DC0001A6C42F080521A641B6C03F0805301931A
:102DD000019B0125284B1B6813F4807F23D0A36837
:102DE000012B34D0052B38D0214B1A6F22F0010271
:102DF0001A671A6F22F004021A67A368002B3DD0ED
:102E0000FEF728FF06461A4B1B6F13F0020F46D140
:102E1000FEF720FF801B41F288339842F3D903204C
:102E2000C6E00025D6E7144A136843F480731360A4
:102E3000FEF710FF0646104B1B6813F4807FCED1BF
:102E4000FEF708FF801B0228F5D90320B0E0084AEE
:102E5000136F43F001031367CFE7054B1A6F42F07E
:102E600004021A671A6F42F001021A67C5E700BF31
:102E7000003802400000474200700040FEF7EAFEC2
:102E80000646524B1B6F13F0020F08D0FEF7E2FE0E
:102E9000801B41F288339842F3D9032088E0EDB9D2
:102EA000A369002B00F08380484A926802F00C026C
:102EB000082A51D0022B17D0454B00221A66FEF784
:102EC000C9FE0446414B1B6813F0007F42D0FEF759
:102ED000C1FE001B0228F5D9032069E03B4A136CB0
:102EE00023F080531364DBE7394B00221A66FEF7A8
:102EF000B1FE0546354B1B6813F0007F06D0FEF788
:102F0000A9FE401B0228F5D9032051E0E369226A9B
:102F10001343626A43EA8213A26A5208013A43EAFF
:102F20000243E26A43EA0263284A5360284B0122C3
:102F30001A66FEF78FFE0446244B1B6813F0007FD1
:102F400006D1FEF787FE001B0228F5D903202FE0EB
:102F500000202DE000202BE0012B2BD01B4B5B68C9
:102F600003F48001E269914226D103F03F02216A15
:102F70008A4223D1616A47F6C0721A40B2EB811FC0
:102F80001ED103F44031A26A5208013AB1EB024F5C
:102F900018D103F07063E26AB3EB026F14D1002022
:102FA00006E001207047012002E0012000E000203F
:102FB00002B070BD0120FBE70120F9E70120F7E72F
:102FC0000120F5E70120F3E70120F1E70038024096
:102FD0000000474208B5264B9B6803F00C03042B06
:102FE00041D0082B41D1224B5A6802F03F025B6866
:102FF00013F4800F12D01E4B5968C1F388111D487D
:103000000023A1FB0001FDF797FA194B5B68C3F39E
:10301000014301335B00B0FBF3F008BD144B58686B
:10302000C0F388104FEA401CBCEB000C6EEB0E0E98
:103030004FEA8E1343EA9C634FEA8C11B1EB0C010B
:1030400063EB0E03DB0043EA5173C90011EB000C84
:1030500043F10003990200234FEA8C2041EA9C517E
:10306000FDF76AFAD1E70348D7E70348D5E700BF81
:1030700000380240001BB7000024F400002800F0D4
:103080009B8070B50D4604464F4B1B6803F0070349
:103090008B4208D2CBB24C4A1370136803F007037B
:1030A0008B4240F08B80236813F0020F17D013F08F
:1030B000040F04D0454A936843F4E05393602368B7
:1030C00013F0080F04D0414A936843F460439360BF
:1030D0003E4A936823F0F003A1680B439360236892
:1030E00013F0010F32D06368012B21D09A1E012A00
:1030F00025D9364A126812F0020F61D033498A6826
:1031000022F0030213438B60FEF7A4FD06462F4B0B
:103110009B6803F00C036268B3EB820F16D0FEF7D6
:1031200099FD801B41F288339842F0D9032042E098
:10313000264A126812F4003FE0D101203BE0234A06
:10314000126812F0007FD9D1012034E01E4B1B68B9
:1031500003F00703AB4207D9EAB21B4B1A701B6896
:1031600003F00703AB422DD1236813F0040F06D000
:10317000164A936823F4E053E1680B439360236895
:1031800013F0080F07D0114A936823F460432169B4
:1031900043EAC1039360FFF71DFF0C4B9B68C3F329
:1031A00003130B4AD35CD8400A4B18600A4B1868CB
:1031B000FEF73CFA002070BD012070470120FAE7BD
:1031C0000120F8E70120F6E7003C02400038024009
:1031D0007CDD00080000002008000020014B18687A
:1031E000704700BF0000002008B5FFF7F7FF044B51
:1031F0009B68C3F38223034AD35CD84008BD00BF59
:103200000038024074DD000808B5FFF7E7FF044B03
:103210009B68C3F34233034AD35CD84008BD00BF68
:103220000038024074DD00080F2303600B4B9A68DE
:1032300002F0030242609A6802F0F00282609A682B
:1032400002F4E052C2609B68DB0803F4E0530361C0
:10325000034B1B6803F007030B6070470038024004
:10326000003C024000285AD010B50446436A33B9E6
:103270004368B3F5827F05D00023C36102E00023D9
:10328000036143610023A36294F85130002B40D0C6
:10329000022384F851302268136823F0400313603E
:1032A000636803F48273A26802F404421343E26881
:1032B00002F400621343226902F0020213436269BE
:1032C00002F001021343A26902F400721343E2699F
:1032D00002F038021343226A02F080021343A26A0A
:1032E00002F40052216813430B60638B03F0040364
:1032F000626A02F01002216813434B602268D369AE
:1033000023F40063D36100206065012384F8513009
:1033100010BD84F850302046FEF7D4F8B8E70120FD
:103320007047000030B4036A026A22F001020262B0
:103330004268846924F0730C0C6844EA0C0423F09E
:10334000020C8B6843EA0C03114DA84203D005F52B
:103350008065A84205D123F00803CD682B4323F0F4
:1033600004030B4DA84203D005F58065A84207D1A0
:1033700022F440724D6945EA020C8A6942EA0C0265
:10338000426084614A684263036230BC704700BF98
:103390000000014030B4036A026A22F480720262C3
:1033A0004268C46924F0730C0C6844EA0C0523F4E9
:1033B00000738C6843EA0423114CA04203D004F547
:1033C0008064A04206D123F40063CC6843EA04235E
:1033D00023F480630A4CA04203D004F58064A04229
:1033E00007D122F440524C6942EA04128C6942EA45
:1033F00004124260C5614A68C263036230BC704710
:103400000000014030B4036A026A22F48052026272
:103410004468C26922F4E6420D6842EA052223F4B8
:1034200000538D6843EA0533094DA84203D005F5E2
:103430008065A84204D124F480444D6944EA85148F
:103440004460C2614A680264036230BC704700BFD6
:103450000000014090F83D30DBB2012B37D1022350
:1034600080F83D300268D36843F00103D3600368FD
:10347000194A934220D0B3F1804F1DD0A2F57C426F
:10348000934219D002F58062934215D002F5806212
:10349000934211D002F5784293420DD002F570525A
:1034A000934209D0A2F59432934205D01A6842F0B3
:1034B00001021A60002070479A6802F00702062A8B
:1034C00007D01A6842F001021A60002070470120FC
:1034D00070470020704700BF0000014070477047F0
:1034E00070477047704770B504460368DE681D6911
:1034F00015F0020F10D016F0020F0DD06FF002027F
:103500001A610123037703689B6913F0030F5ED0F0
:10351000FFF7E6FF0023237715F0040F12D016F013
:10352000040F0FD023686FF004021A61022323777F
:1035300023689B6913F4407F4FD02046FFF7D0FFEC
:103540000023237715F0080F12D016F0080F0FD0C4
:1035500023686FF008021A61042323772368DB696C
:1035600013F0030F40D02046FFF7BAFF0023237764
:1035700015F0100F12D016F0100F0FD023686FF057
:1035800010021A61082323772368DB6913F4407F54
:1035900031D02046FFF7A4FF0023237715F0010F59
:1035A00002D016F0010F2DD115F0800F02D016F0C9
:1035B000800F2FD115F0400F02D016F0400F31D1FF
:1035C00015F0200F02D016F0200F33D170BDFFF799
:1035D00086FF2046FFF785FF9CE72046FFF77FFF29
:1035E0002046FFF77EFFABE72046FFF778FF204637
:1035F000FFF777FFBAE72046FFF771FF2046FFF796
:1036000070FFC9E723686FF001021A612046FDF7D9
:10361000ABFEC9E723686FF080021A61204600F014
:103620007CF9C7E723686FF040021A612046FFF774
:1036300059FFC5E723686FF020021A61204600F0A9
:103640006BF9C3E70368344A904212D0B0F1804F5F
:103650000FD0A2F57C4290420BD002F580629042DE
:1036600007D002F58062904203D002F57842904282
:1036700003D123F070034A681343274A90422AD0AB
:10368000B0F1804F27D0A2F57C42904223D002F5C2
:10369000806290421FD002F5806290421BD002F5FA
:1036A0007842904217D002F57052904213D002F542
:1036B000806290420FD002F5806290420BD0A2F55A
:1036C0009832904207D002F58062904203D002F512
:1036D0008062904203D123F44073CA68134323F0FD
:1036E00080034A69134303608B68C3620B6883627B
:1036F000094B984203D003F58063984201D10B69CE
:10370000036301234361036913F0010F03D00369CD
:1037100023F00103036170470000014040B310B57E
:10372000044690F83D30F3B1022384F83D30214641
:1037300051F8040BFFF786FF012384F8463084F824
:103740003E3084F83F3084F8403084F8413084F8CB
:10375000423084F8433084F8443084F8453084F8AB
:103760003D30002010BD80F83C30FEF77FF8DBE7ED
:103770000120704740B310B5044690F83D30F3B1D6
:10378000022384F83D30214651F8040BFFF75AFF1D
:10379000012384F8463084F83E3084F83F3084F8C2
:1037A000403084F8413084F8423084F8433084F863
:1037B000443084F8453084F83D30002010BD80F856
:1037C0003C30FFF78BFEDBE70120704730B4036A23
:1037D000026A22F0100202624468826922F4E64220
:1037E0000D6842EA052223F020038D6843EA0513A1
:1037F000114DA84203D005F58065A84206D123F0FB
:103800008003CD6843EA051323F040030A4DA84224
:1038100003D005F58065A84207D124F440644D69C2
:1038200044EA85048D6944EA8504446082614A68FB
:103830008263036230BC70470000014038B590F8E5
:103840003C30012B66D004460D46012380F83C3005
:103850000C2A5AD8DFE802F0075959591B5959590F
:103860003059595944000068FFF75CFD226893699C
:1038700043F0080393612268936923F00403936182
:103880002268936929690B43936100203EE0006838
:10389000FFF79CFF2268936943F4006393612268F9
:1038A000936923F48063936122689369296943EAE9
:1038B00001239361002029E00068FFF76BFD226877
:1038C000D36943F00803D3612268D36923F004036A
:1038D000D3612268D36929690B43D361002015E0C5
:1038E0000068FFF78FFD2268D36943F40063D3615A
:1038F0002268D36923F48063D3612268D36929697C
:1039000043EA0123D361002000E00120002384F872
:103910003C3038BD0220FCE770477047026802F176
:103920000C0353E8003F23F0C0030C3242E800319F
:103930000029F3D1202380F841307047026802F15A
:103940000C0353E8003F23F490730C3242E800313B
:103950000029F3D1026802F1140353E8003F23F079
:103960000103143242E800310029F3D1036B012B2B
:1039700005D0202380F8423000230363704702689B
:1039800002F10C0353E8003F23F010030C3242E82D
:1039900000310029F3D1ECE790F84130DBB2212B64
:1039A00001D0022070478368B3F5805F17D0036AA7
:1039B0005A1C02621A7803685A60C38C9BB2013B9E
:1039C0009BB2C3844BB90268D36823F08003D360F1
:1039D0000268D36843F04003D36000207047036956
:1039E000002BE4D1036A1B880268C3F30803536009
:1039F000036A02330362E0E710B504460268136904
:103A000023F44053C1680B431361836802691A436E
:103A100043691A43C3691A430168CB6823F4164308
:103A200023F00C031343CB600268536923F4407303
:103A300081690B4353610368314A934206D002F512
:103A40008062934202D0FFF7CFFB01E0FFF7DCFB7F
:103A5000E369B3F5004F29D00021031849411B1831
:103A600041F10001C90041EA5371DB001818636895
:103A70004FEA83024FEA937341F10001FCF75CFDCA
:103A8000204AA2FB00314909642303FB11031B01F7
:103A90003233A2FB03235B0903F0F00202EB0112B5
:103AA00003F00F03216813448B6010BD002302183C
:103AB00043EB0301121841F10001C90041EA5271C0
:103AC000D200101841F10001626892185B41FCF7C6
:103AD00033FD0C4AA2FB00314909642303FB1103A7
:103AE000DB003233A2FB03235B095A0002F4F872B5
:103AF00002EB011203F00703216813448B60D4E743
:103B0000001001401F85EB512DE9F04383B00546BD
:103B10000E4617469946DDF828802B681C6836EA61
:103B200004040CBF01240024BC4228D1B8F1FF3F9B
:103B3000F3D0FEF78FF8A0EB0900404523D8B8F189
:103B4000000F22D02B68DA6812F0040FE5D0802E27
:103B5000E3D0402EE1D01A6812F0080FDDD0002427
:103B600001941A6801925B680193019B2846FFF754
:103B7000E5FE08236B6485F84040012000E000204A
:103B800003B0BDE8F0830320FAE70320F8E760B351
:103B900010B5044690F8413013B3242384F8413023
:103BA0002268D36823F40053D3602046FFF724FF34
:103BB0002268136923F4904313612268536923F048
:103BC0002A0353612268D36843F40053D360002072
:103BD0006064202384F8413084F84230606310BD73
:103BE00080F84030FDF7FAFED7E7012070472DE955
:103BF000F04182B01E4690F84130DBB2202B56D106
:103C000004460D469046002955D00AB901204FE0E0
:103C100000234364212380F84130FEF71BF8074658
:103C2000A4F82480A4F82680A368B3F5805F02D0AE
:103C30004FF0000814E023692BB34FF000080FE0A9
:103C4000202384F84130032032E038F8023B226818
:103C5000C3F308035360E28C92B2013A92B2E28459
:103C6000E38C9BB293B100963B4600228021204614
:103C7000FFF74AFF0028E3D1002DE6D015F8012B0D
:103C800023685A60E7E7A8460025E9E700963B4627
:103C9000002240212046FFF737FF18B9202384F87F
:103CA000413005E0202384F84130032000E0022069
:103CB00002B0BDE8F0810120FAE7704708B501685D
:103CC000CA6822F04002CA60202280F84120FFF733
:103CD000F4FF002008BD7047704710B5846B23685F
:103CE0005A6994F84130DBB2212B10D023685A690D
:103CF00002F0400294F84230DBB2222B11D0636C08
:103D000043F0100363642046FFF7E6FF10BD02F0A6
:103D10008002002AEAD00023E3842046FFF7FEFD5C
:103D2000E4E7002AEBD00023E3852046FFF706FEF8
:103D3000E5E708B5806B0023C385C384FFF7CCFF9C
:103D400008BD704790F84230DBB2222B69D18368FE
:103D5000B3F5805F4FD0826AB3F5805F04D0002B4B
:103D600056D10369002B53D103685B681370836AD3
:103D700001338362C38D9BB2013B9BB2C385002B91
:103D800051D100B583B00268D36823F02003D3601B
:103D90000268D36823F48073D3600268536923F008
:103DA00001035361202380F8423000234363036BF7
:103DB000012B33D100230363026802F10C0353E8A3
:103DC000003F23F010030C3242E800310029F3D108
:103DD00003681A6812F0100F06D0002201921A68C8
:103DE00001925B680193019B818DFFF7AAFF002080
:103DF00003B05DF804FB0269002AACD1826A036853
:103E00005B68C3F308031380836A02338362B1E7FC
:103E100003685B6803F07F031370A8E702F05AFDA4
:103E2000E5E70220704700207047000010B582B01F
:103E3000044602681368D068516913F00F0F09D166
:103E400013F0200F0CD010F0200F09D02046FFF700
:103E500079FF16E011F0010115D110F4907F12D115
:103E6000216B012979D013F0800F03D010F0800F5F
:103E700040F0148113F0400F03D010F0400F40F0D9
:103E8000118102B010BD13F0010F06D010F4807F35
:103E900003D0626C42F00102626413F0040F04D09C
:103EA00019B1626C42F00202626413F0020F04D096
:103EB00019B1626C42F00402626413F0080F07D07B
:103EC00010F0200F00D119B1626C42F00802626458
:103ED000626C002AD5D013F0200F02D010F0200F12
:103EE00029D123685B6903F04003626C12F0080F6C
:103EF00000D163B32046FFF721FD23685B6913F00F
:103F0000400F20D0226802F1140353E8003F23F051
:103F10004003143242E800310029F3D1E36B73B15E
:103F2000624A1A65E06BFEF75CFC0028A9D0E06BE2
:103F3000036D9847A5E72046FFF704FFD1E7204629
:103F4000FFF7CAFE9DE72046FFF7C6FE99E7204629
:103F5000FFF7C2FE0023636493E713F0100F82D0D3
:103F600010F0100F3FF47FAF00230193136801930B
:103F700053680193019B536913F0400F52D0E26BD9
:103F800013685B689BB2002B3FF47BAFA18D994215
:103F90007FF677AFE385D369B3F5807F37D02268AA
:103FA00002F10C0353E8003F23F480730C3242E823
:103FB00000310029F3D1226802F1140353E8003FD5
:103FC00023F00103143242E800310029F3D12268C2
:103FD00002F1140353E8003F23F04003143242E897
:103FE00000310029F3D1202384F8423000232363D9
:103FF000226802F10C0353E8003F23F010030C3257
:1040000042E800310029F3D1E06BFEF7A0FB022368
:104010006363A18DE38D9BB2C91A89B22046FFF775
:1040200090FE2EE7A18DE38D9BB2C91A89B2E38D74
:104030009BB2002B3FF425AF00293FF422AF22684A
:1040400002F10C0353E8003F23F490730C3242E872
:1040500000300028F3D1226802F1140353E8003F36
:1040600023F00103143242E800300028F3D120236A
:1040700084F8423000232363226802F10C0353E8E2
:10408000003F23F010030C3242E800300028F3D147
:10409000022363632046FFF754FEF2E62046FFF753
:1040A0007BFCEEE62046FFF709FEEAE6333D00081A
:1040B00008B5806B01234363036B012B02D0FFF72C
:1040C0000AFE08BD818D4908FFF73BFEF9E708B5F8
:1040D0000346806B1B681B6813F4807F2BD1002381
:1040E000C385026802F10C0353E8003F23F4807398
:1040F0000C3242E800310029F3D1026802F11403C6
:1041000053E8003F23F00103143242E80031002954
:10411000F3D1026802F1140353E8003F23F0400397
:10412000143242E800310029F3D1202380F84230D4
:10413000036B012B07D000234363036B012B0FD0CC
:1041400002F0C8FB08BD026802F10C0353E8003F0F
:1041500023F010030C3242E800310029F3D1EAE7E2
:10416000818DFFF7EEFDEDE730B583B004461346D1
:104170008162828500254564222280F84220C26B3C
:104180001F48D063E26B1F481064E26B1E48D06486
:10419000E26B156520680A46011DE06BFEF7A2FA86
:1041A000019523681A6801925B680193019B23695A
:1041B0005BB1226802F10C0353E8003F43F48073C3
:1041C0000C3242E800310029F3D1226802F11403D5
:1041D00053E8003F43F00103143242E80031002964
:1041E000F3D1226802F1140353E8003F43F0400387
:1041F000143242E800310029F3D1002003B030BD71
:10420000CF400008B1400008DB3C000808B590F83A
:104210004230DBB2202B08D149B10AB9012008BDD8
:1042200000230363FFF7A0FFF9E70220F7E701206F
:10423000F5E708B54FF0E0231B6901F015FC0128F4
:1042400000D108BD00F0D6F9FBE70000EFF30583CD
:104250002BB9064B186828B901221A6070476FF015
:10426000050070474FF0FF30704700BF701400200A
:10427000EFF3058373B90A4B1B68012B0DD110B501
:104280000024084BDC77064B02221A6001F03AF951
:10429000204610BD6FF0050070474FF0FF307047AB
:1042A0007014002000ED00E0F0B587B00024059404
:1042B000EFF305847CBB70B32AB31568936903B927
:1042C00018235C1E372C4AD8546814F0010F48D1CB
:1042D000566976B14FEA960C946834B1D768B7F551
:1042E000D07F02D3176907B1C6B92CB14FF0FF34A4
:1042F0000EE04FF0800CEFE7D4688CB9146994B1EC
:104300004FF0FF3404E01546002418234FF0800CD2
:10431000012C0AD0ACB1059807B0F0BD0124F7E735
:104320004FF0FF34F4E70024F2E714699268029238
:10433000019400930B466246294601F073F80590FC
:10434000E9E705AA019200930B461FFA8CF2294671
:1043500001F0A5F80128DED000230593DBE700205B
:10436000DAE70020D8E708B5EFF3058333B908B9D9
:10437000002008BD01F032FA0020FAE76FF00500D6
:10438000F7E70000034B0360034B0B6080231360CF
:10439000704700BFD0120020D0100020034B0360F4
:1043A000034B0B604FF4807313607047300F002095
:1043B0002C0B002000F1080343604FF0FF328260B5
:1043C000C3600361002303607047002303617047EB
:1043D00043684B609A688A6051609960086103681D
:1043E00001330360704730B40D68B5F1FF3F11D061
:1043F00000F108031C465B681A68AA42FAD9636890
:104400004B6099608C6061600861036801330360F0
:1044100030BC70470469F2E70369416882688A60CA
:10442000416851605A68824206D0002202611A68CF
:10443000013A1A601868704782685A60F5E7000010
:1044400082B0002301930D4B1B68B3F1FF3F08D0EE
:104450004FF0500383F31188BFF36F8FBFF34F8F7B
:10446000FEE74FF0500383F31188BFF36F8FBFF364
:104470004F8F019B002BFCD002B070470C00002036
:1044800008480068006880F308884FF0000080F357
:10449000148862B661B6BFF34F8FBFF36F8F00DF32
:1044A00000BF000008ED00E0DFF80C00016841F4F7
:1044B000700101607047000088ED00E04FF08073EC
:1044C00040F8043C21F0010140F8081C054B40F87D
:1044D0000C3C40F8202C6FF0020340F8243C443898
:1044E000704700BF414400080000000000000000C9
:1044F000074B19680868B0E8F04F80F30988BFF3EC
:104500006F8F4FF0000080F311887047AFF3008089
:10451000D85500204FF0500383F31188BFF36F8FFD
:10452000BFF34F8F0B4A136801331360012B00D088
:1045300070474FF0E023D3F8043D13F0FF0FF7D09E
:104540004FF0500383F31188BFF36F8FBFF34F8F8A
:10455000FEE700BF0C000020094B1B6843B94FF079
:10456000500383F31188BFF36F8FBFF34F8FFEE7C4
:10457000013B034A13600BB983F31188704700BFF6
:104580000C000020000000000000000000000000FF
:10459000EFF30980BFF36F8F154B1A681EF0100FF1
:1045A00008BF20ED108A20E9F04F10602DE90900C6
:1045B0004FF0500080F31188BFF34F8FBFF36F8F20
:1045C00001F032F94FF0000080F3118809BC19683E
:1045D0000868B0E8F04F1EF0100F08BFB0EC108A6A
:1045E00080F30988BFF36F8F704700BFAFF300807F
:1045F000D855002008B54FF0500383F31188BFF35E
:104600006F8FBFF34F8F00F0E1FF28B14FF0E02331
:104610004FF08052C3F8042D002383F3118808BDA6
:104620004FF0E022002313619361054B1B6805499D
:10463000A1FB03139B09013B5361072313617047DF
:1046400000000020D34D62104FF0E023D3F8002D7E
:104650003D4B9A421CD04FF0E023D3F8002D3B4B4A
:104660009A421ED030B583B0394B1A78D2B201923B
:10467000FF221A701B78DBB28DF803309DF80330EF
:1046800003F05003334A1370334B07221A601BE0C8
:104690004FF0500383F31188BFF36F8FBFF34F8F39
:1046A000FEE74FF0500383F31188BFF36F8FBFF322
:1046B0004F8FFEE7284A1368013B13609DF80330D3
:1046C0005B00DBB28DF803309DF8033013F0800FF0
:1046D000F0D1214B1B68032B08D04FF0500383F31C
:1046E0001188BFF36F8FBFF34F8FFEE71B021A4A8B
:1046F000136003F4E0631360019BDBB2144A137090
:104700004FF0E024D4F8203D43F47003C4F8203D7A
:10471000D4F8203D43F07043C4F8203DFFF780FFFC
:1047200000250E4B1D60FFF7BFFED4F8343F43F069
:104730004043C4F8343FFFF7A3FE01F075F8FFF7DC
:104740007FFE284603B030BD71C20F4170C20F41D9
:1047500000E400E078140020741400200C00002015
:10476000EFF305830F2B0FD9114A9B5CDBB2114A83
:1047700012789A4208D94FF0500383F31188BFF39F
:104780006F8FBFF34F8FFEE74FF0E023D3F80C3D60
:1047900003F4E063084A1268934208D94FF05003CB
:1047A00083F31188BFF36F8FBFF34F8FFEE770471E
:1047B000F0E300E07814002074140020124A12F094
:1047C000070F1ED0D11D21F00701C1F5705313440E
:1047D0000A460E480260002141601344083B23F062
:1047E00007030B48036059601960991A5160136000
:1047F000084B1960084B1960084B4FF000421A60D3
:1048000070474FF47053E4E79C1400209414002088
:1048100090140020881400208C1400207C140020A8
:10482000164B1A461B688342FBD3516802EB010CFE
:10483000844509D0416800EB010C634509D0036051
:10484000904219D010607047406801445160104692
:10485000F0E710B40A4C2468A3420BD05B681944FB
:10486000416013681B680360904200D010605DF8DF
:10487000044B70470460F7E7704700BF94140020B2
:104880009014002038B5044600F092FE384B1B68A7
:10489000B3B1384B1B681C4250D1002C50D004F1EE
:1048A000080214F0070F02D022F007020832002A93
:1048B00055D0314B1B68934253D330490C6804E008
:1048C000FFF77CFFE5E721461C466368934202D26E
:1048D0002368002BF7D1264B1B68A34243D00D68F9
:1048E000083523680B6063689B1A102B10D9A01839
:1048F00010F0070F08D04FF0500383F31188BFF377
:104900006F8FBFF34F8FFEE743606260FFF788FF52
:10491000626819490B689B1A0B60194909688B4238
:1049200001D217490B60134B1B68134363600023CC
:104930002360144A13680133136002E0002500E08D
:10494000002500F0CFFE15F0070F0ED04FF05003FA
:1049500083F31188BFF36F8FBFF34F8FFEE70025FE
:10496000EFE70025EDE70025EBE7284638BD00BF5F
:10497000901400207C1400208C140020941400203B
:104980008814002084140020002834D038B5044650
:10499000A0F1080550F8043C174A1268134208D1E8
:1049A0004FF0500383F31188BFF36F8FBFF34F8F26
:1049B000FEE750F8081C41B14FF0500383F3118813
:1049C000BFF36F8FBFF34F8FFEE723EA020340F878
:1049D000043C00F0EDFD54F8041C084A13680B4435
:1049E00013602846FFF71CFF054A13680133136064
:1049F00000F078FE38BD70477C1400208C14002035
:104A00008014002010B50446FFF784FDA26BE36B11
:104A10009A4204D00024FFF79FFD204610BD0124D8
:104A2000F9E710B50446FFF775FDA36B23B9012420
:104A3000FFF792FD204610BD0024F9E770B504464B
:104A40001546866B026C5AB903681BB1002001360B
:104A5000A66370BD806801F017F80023A360F6E735
:104A60006DB94068FBF782FD6368226C1344636094
:104A7000A268934219D3236863602846E7E7C068B9
:104A8000FBF774FDE368226C51429B1AE3602268D5
:104A9000934202D2A3680B44E360022D01D00020B0
:104AA000D5E726B1013E0020D1E72846CFE7002018
:104AB000CDE70346026C6AB110B50846D9681144C7
:104AC000D9609C68A14201D31968D960D968FBF705
:104AD0004DFD10BD704738B50546FFF71BFD95F835
:104AE000454064B201E0013C64B2002C0ADD6B6A0F
:104AF00043B105F1240000F01DFF0028F3D000F0C1
:104B0000ADFFF0E7FF2385F84530FFF725FDFFF700
:104B100001FD95F8444064B201E0013C64B2002C10
:104B20000ADD2B6943B105F1100000F003FF0028F6
:104B3000F3D000F093FFF0E7FF2385F84430FFF750
:104B40000BFD38BD38B5E0B10D460446FFF7E2FC79
:104B50002368E26B216C01FB0230A0600020A0639F
:104B60006360013A02FB0133E360FF2384F84430C1
:104B700084F84530FDB9236963B9FFF7EDFC0120E6
:104B800038BD4FF0500383F31188BFF36F8FBFF32D
:104B90004F8FFEE704F1100000F0CCFE0028ECD0AF
:104BA0004FF0E0234FF08052C3F8042DBFF34F8F36
:104BB000BFF36F8FE1E704F11000FFF7FBFB04F197
:104BC0002400FFF7F7FBD8E738B51D46049C0B46D9
:104BD00049B92460E063236401212046FFF7B2FF56
:104BE00084F84C5038BD2260F4E740B94FF05003D0
:104BF00083F31188BFF36F8FBFF34F8FFEE710B5BC
:104C000084B01C46844653B192B189B94FF0500329
:104C100083F31188BFF36F8FBFF34F8FFEE74FF021
:104C2000500383F31188BFF36F8FBFF34F8FFEE7FD
:104C30006AB150230393039B502B13D04FF05003C2
:104C400083F31188BFF36F8FBFF34F8FFEE7002907
:104C5000EFD04FF0500383F31188BFF36F8FBFF392
:104C60004F8FFEE7039B012384F8463000949DF8A4
:104C700018306046FFF7A8FF204604B010BDF0B51D
:104C800085B0019288B10F461D460446B1B1022D90
:104C900020D1E36B012B1DD04FF0500383F311881B
:104CA000BFF36F8FBFF34F8FFEE74FF0500383F3D7
:104CB0001188BFF36F8FBFF34F8FFEE7036C002B9C
:104CC000E5D04FF0500383F31188BFF36F8FBFF32C
:104CD0004F8FFEE700F0C8FE064658B9019B002B37
:104CE00048D04FF0500383F31188BFF36F8FBFF3A9
:104CF0004F8FFEE700263DE02A4639462046FFF763
:104D00009DFE636A7BB948B14FF0E0234FF08052BB
:104D1000C3F8042DBFF34F8FBFF36F8FFFF71CFC59
:104D2000012005B0F0BD04F1240000F003FE0028CE
:104D3000F4D04FF0E0234FF08052C3F8042DBFF3BE
:104D40004F8FBFF36F8FE9E7FFF706FC0020E8E71E
:104D500002A800F035FE012619E0002384F8443053
:104D600021E0002384F8453023E02046FFF7B3FE1E
:104D700000F0B8FCFFF7CEFBA26BE36B9A42BBD30B
:104D8000022DB9D0019B002BDED0002EE0D0FFF722
:104D9000E3FB00F00DFCFFF7BDFB94F8442052B29A
:104DA000B2F1FF3FD9D094F8452052B2B2F1FF3FA3
:104DB000D7D0FFF7D1FB01A902A800F00DFED8B9AA
:104DC0002046FFF71FFE0028CFD0019904F1100004
:104DD00000F07CFD2046FFF77EFE00F083FC0028FB
:104DE000C8D14FF0E0234FF08052C3F8042DBFF339
:104DF0004F8FBFF36F8FBDE72046FFF76CFE00F0CB
:104E000071FC00208DE72DE9F84390B10F4616465E
:104E10001C460546B1B1022C20D1EB6B012B1DD0F5
:104E20004FF0500383F31188BFF36F8FBFF34F8FA1
:104E3000FEE74FF0500383F31188BFF36F8FBFF38A
:104E40004F8FFEE7036C002BE5D04FF0500383F348
:104E50001188BFF36F8FBFF34F8FFEE7FFF780FC22
:104E6000EFF311884FF0500383F31188BFF36F8F76
:104E7000BFF34F8FAA6BEB6B9A4206D3022C04D080
:104E8000002088F31188BDE8F88395F845904FFA23
:104E900089F9AB6B224639462846FFF7CFFDB9F1B9
:104EA000FF3F06D009F101035BB285F845300120D0
:104EB000E7E76B6A0BB90120E3E705F1240000F096
:104EC00039FD18B126B101203060DAE70120D8E7BA
:104ED0000120D6E7F0B585B0019290B10F460446A7
:104EE000C1B100F0C1FD064600BB019B002B5ED0A6
:104EF0004FF0500383F31188BFF36F8FBFF34F8FD1
:104F0000FEE74FF0500383F31188BFF36F8FBFF3B9
:104F10004F8FFEE7036C002BE3D04FF0500383F379
:104F20001188BFF36F8FBFF34F8FFEE700263EE07F
:104F300039462046FFF7BDFD013DA563236923B92E
:104F4000FFF70AFB012005B0F0BD04F1100000F0EE
:104F5000F1FC0028F4D04FF0E0234FF08052C3F86A
:104F6000042DBFF34F8FBFF36F8FE9E7FFF7F4FA1C
:104F70000020E8E702A800F023FD012621E000233D
:104F800084F8443029E0002384F845302BE02046A3
:104F9000FFF7A1FD00F0A6FB09E02046FFF79BFD0F
:104FA00000F0A0FB2046FFF73CFD00283FD1FFF7B3
:104FB000B1FAA56B002DBBD1019B002BD6D0002EE2
:104FC000D8D0FFF7C9FA00F0F3FAFFF7A3FA94F884
:104FD00044305BB2B3F1FF3FD1D094F845305BB2BF
:104FE000B3F1FF3FCFD0FFF7B7FA01A902A800F055
:104FF000F3FC0028D1D12046FFF713FD0028C6D0CE
:10500000019904F1240000F061FC2046FFF763FDE4
:1050100000F068FB0028CAD14FF0E0234FF0805227
:10502000C3F8042DBFF34F8FBFF36F8FBFE700208E
:1050300089E700000023072B0CD8074A52F83320D9
:105040000AB10133F7E7044A42F8331002EBC30216
:1050500050607047704700BF9C50002070B50446F8
:105060000D461646FFF756FA94F844305BB2B3F19A
:10507000FF3F0DD094F845305BB2B3F1FF3F0BD04A
:10508000FFF76AFAA36B5BB12046FFF724FD70BD02
:10509000002384F84430EDE7002384F84530EFE73F
:1050A0003246294604F1240000F028FCECE7000019
:1050B000084B1B681B6823B9074B4FF0FF321A607F
:1050C0007047044B1B68DB68DB685A68024B1A6048
:1050D000704700BF4C510020E45000202DE9F047FC
:1050E00080460D4617469946089EDDF824A00A9C86
:1050F0009200A521206B02F003F8236B07F1804298
:10510000013A03EB820727F00707002D61D04FF02B
:10511000000CBCF10F0F09D815F80C3004EB0C0291
:1051200082F8343013B10CF1010CF2E7002384F85B
:105130004330372E00D93726E662E6640025256520
:10514000201DFFF742F904F11800FFF73EF9246132
:10515000C6F13806A6616462C4F8985184F89C517F
:105160004FF4A072294604F1580001F0C9FF1B4B0F
:10517000E36503F168022266D033636601220023EF
:10518000C4E93C2343F20E33A4F8F8304AF6CD3399
:10519000A4F8FA3041F23423A4F8FC304EF26D63E7
:1051A000A4F8FE304DF6EC63A4F800310523A4F812
:1051B00002310B23A4F804314A4641463846FFF732
:1051C0007DF92060BAF1000F01D0CAF80040BDE8B7
:1051D000F087002384F83430ABE700BF1C5C00206C
:1051E00038B5002407E004EB840293000E4818440D
:1051F000FFF7E0F80134372CF5D90C4D2846FFF7BE
:10520000D9F80B4C2046FFF7D5F80A48FFF7D2F83B
:105210000948FFF7CFF80948FFF7CCF8084B1D60A5
:10522000084B1C6038BD00BF78510020645100203D
:1052300050510020345100202051002008510020FE
:105240004C5100204851002010B50446FFF762F988
:10525000224A136801331360214B1B685BB1214B59
:105260001B686BB91E4B1B68DA6AE36A9A4207D85F
:105270001B4B1C6004E01A4B1C601368012B29D0E7
:10528000194A1368013313606364E06A174B1B68A3
:10529000984201D9154B186000EB8000211D144B7A
:1052A00003EB8000FFF794F8FFF756F90D4B1B68EE
:1052B0007BB10B4B1B68DA6AE36A9A4209D24FF062
:1052C000E0234FF08052C3F8042DBFF34F8FBFF39C
:1052D0006F8F10BDFFF784FFD2E700BF045100209D
:1052E000D8550020F8500020E8500020FC50002045
:1052F0007851002010B50446583001F065FF94F84D
:105300009D3163B1012B11D0022B0ED04FF0500311
:1053100083F31188BFF36F8FBFF34F8FFEE7206BCE
:10532000FFF732FB2046FFF72FFB10BD2046FFF7AB
:105330002BFBFAE70F4B1B68D3B110B5FFF7EAF868
:105340000D4BDB68DC68201DFFF766F80B4A13681D
:10535000013B1360074A1368013B1360FFF7FCF839
:105360002046FFF7C7FF034B1B68002BE6D110BD9B
:10537000704700BF1C510020205100200451002024
:1053800008B5FFF7D7FF074B1B68012BF9D94FF082
:10539000E0234FF08052C3F8042DBFF34F8FBFF3CB
:1053A0006F8FEEE77851002070B504460D46174B1D
:1053B0001E68174B18680430FFF72EF8B4F1FF3F52
:1053C0000DD03444124B1B685C60A64210D9114BBF
:1053D00018680F4B19680431FFF705F870BD002DF0
:1053E000EFD00B4B196804310B48FEF7F1FFF5E7DE
:1053F0000A4B1868064B19680431FEF7F4FF084B96
:105400001B68A342EAD9064B1C60E7E70051002065
:10541000D855002048510020085100204C51002050
:10542000E450002030B587B00B9C8CB10C9DC5B109
:105430004FF4D0750495049DB5F5D07F1AD04FF088
:10544000500383F31188BFF36F8FBFF34F8FFEE7D5
:105450004FF0500383F31188BFF36F8FBFF34F8F6B
:10546000FEE74FF0500383F31188BFF36F8FBFF354
:105470004F8FFEE7049D0C9D2C63022485F89D410F
:1054800000240394029505AC01940A9C0094FFF754
:1054900025FE0C98FFF7D8FE059807B030BD2DE922
:1054A000F04385B00746884614461E469000FFF735
:1054B000E9F910B381464FF4D070FFF7E3F90546E0
:1054C000A8B1C0F83090002380F89D31039302907A
:1054D0000D9B01930C9B0093334622464146384670
:1054E000FFF7FCFD2846FFF7AFFE012007E0484626
:1054F000FFF74AFA4FF0FF3001E04FF0FF3005B000
:10550000BDE8F08310B588B000240594069407AA7E
:1055100006A905A8FEF736FF059B0293069B01939B
:1055200000942346079A1A491A48FFF77BFF1A4B43
:105530001860E8B100F05CFB01281AD14FF050036D
:1055400083F31188BFF36F8FBFF34F8F134B1B682B
:105550005833134A1360134B4FF0FF321A60124B4B
:1055600001221A60114B00221A60FFF76DF803E068
:105570000020B0F1FF3F01D008B010BD4FF0500344
:1055800083F31188BFF36F8FBFF34F8FFEE700BF28
:105590006CDB000881530008E0500020D855002043
:1055A00020000020E4500020F8500020005100208E
:1055B000024A136801331360704700BFDC500020BB
:1055C000014B1868704700BF00510020F8B53A4BF6
:1055D0001B68002B69D1394B1D6801351D60C5B9A9
:1055E000374B1B681B6843B14FF0500383F311889E
:1055F000BFF36F8FBFF34F8FFEE7314A1168314B16
:10560000186810601960304A136801331360FFF79F
:105610004FFD2E4B1B68AB423DD900272C4B1B681E
:10562000DB6A03EB83039A002A4B9B58012B00D9BA
:105630000127294B1B68002B3CD001273AE00127AA
:105640001F4B1B681B6843B31D4B1B68DB68DC6882
:1056500063689D4226D3261D3046FEF7DDFEA36A11
:105660001BB104F11800FEF7D7FEE36A1B4A12686B
:10567000934201D9194A136003EB83039A00314620
:1056800014481044FEF7A4FEE26A114B1B68DB6A63
:105690009A42D4D2D4E70027D2E70C4B4FF0FF3226
:1056A0001A60BBE7094A1360B8E70D4A1368013373
:1056B000136000273846F8BDDC5000200051002060
:1056C0004C51002048510020EC500020E4500020B4
:1056D000D855002078510020F0500020FC500020C8
:1056E000F450002038B5354B1B6843B94FF05003D8
:1056F00083F31188BFF36F8FBFF34F8FFEE7FEF781
:1057000009FF2E4B1A68013A1A601B68002B4FD113
:105710002B4B1B680BB900244BE00024294B1B6862
:105720001BB3284BDB68DC6804F11800FEF774FE3D
:10573000251D2846FEF770FEE06A234B1B68984241
:1057400001D9214B186000EB800029461F4B03EB69
:105750008000FEF73DFEE26A1D4B1B68DB6A9A4241
:10576000DCD31C4B01221A60D8E70CB1FFF7A0FC78
:10577000194B1C6884B9174B1C68D4B14FF0E02357
:105780004FF08052C3F8042DBFF34F8FBFF36F8FDC
:1057900001240EE0013C07D0FFF718FF0028F9D0E4
:1057A0000C4B01221A60F5E70B4B00221A60E2E76E
:1057B0000024FEF7D1FE204638BD00BFDC5000209B
:1057C0000451002034510020FC500020785100206A
:1057D000D8550020F0500020F450002010B5A8B19A
:1057E0000446104B1B6843B14FF0500383F31188FC
:1057F000BFF36F8FBFF34F8FFEE7FFF7D9FE002196
:105800002046FFF7D1FDFFF76DFF48B94FF0E023C9
:105810004FF08052C3F8042DBFF34F8FBFF36F8F4B
:1058200010BD00BFDC500020224B1B681BB1224B77
:1058300001221A607047204B00221A601F4B1B6820
:1058400003EB83018A001E498A585AB90BB1013B08
:10585000F6E74FF0500383F31188BFF36F8FBFF368
:105860004F8FFEE7084603EB83018A00024451682C
:105870004968516003EB830C4FEA8C020832024402
:1058800091420FD003EB830291000D4A0A44526803
:10589000D1680C4A116009490B60136858330A4AF1
:1058A00013607047486862469100054A0A44506098
:1058B000E8E700BFDC500020F0500020FC50002042
:1058C00078510020D85500202000002058B110B594
:1058D0000C46094A11681831FEF785FD0121204662
:1058E000FFF762FD10BD4FF0500383F31188BFF343
:1058F0006F8FBFF34F8FFEE7D855002038B570B1DA
:105900000D4614460A4A11681831FEF761FD0CB1C4
:105910004FF0FF3521462846FFF746FD38BD4FF0D2
:10592000500383F31188BFF36F8FBFF34F8FFEE7F0
:10593000D855002038B5C368DC6824B304F11805D5
:105940002846FEF769FD184B1B682BBB251D284612
:10595000FEF762FDE06A154B1B68984201D9134BB4
:10596000186000EB80002946114B03EB8000FEF726
:105970002FFDE26A0F4B1B68DB6A9A4211D90120A6
:105980000D4B186038BD4FF0500383F31188BFF3FF
:105990006F8FBFF34F8FFEE729460848FEF718FDCB
:1059A000E7E70020EEE700BFDC500020FC500020BD
:1059B00078510020D8550020F050002034510020AC
:1059C000034B1B680360034B1B684360704700BFB9
:1059D000EC50002000510020F8B5C8B10C46054637
:1059E000F9B1FEF797FD1B4B19686B68C81A22685E
:1059F000B2F1FF3F26D0184E36682F68B74201D06B
:105A00008B4224D9824215D80023236001241AE056
:105A10004FF0500383F31188BFF36F8FBFF34F8FA5
:105A2000FEE74FF0500383F31188BFF36F8FBFF38E
:105A30004F8FFEE75B1A134423602846FFF7C0FF31
:105A4000002400E00024FEF787FD2046F8BD012475
:105A5000F9E700BF00510020EC500020014B01226B
:105A60001A607047F0500020054B1B6833B1054B9E
:105A70001B680BB10020704702207047012070475F
:105A8000F8500020DC50002000283BD038B50446F8
:105A90001E4B1B68834208D04FF0500383F31188DC
:105AA000BFF36F8FBFF34F8FFEE7036D43B94FF026
:105AB000500383F31188BFF36F8FBFF34F8FFEE75F
:105AC000013B0365C16AC26C91421DD00BB100203D
:105AD00038BD051D2846FEF79FFCE06CE062C0F172
:105AE0003803A3610A4B1B68984201D9084B186020
:105AF00000EB80002946074B03EB8000FEF768FCB3
:105B00000120E5E7002070470020E1E7D85500209C
